{
  "_format": "hh-sol-artifact-1",
  "contractName": "RewardPayout",
  "sourceName": "contracts/RewardPayout.sol",
  "abi": [
    {
      "inputs": [],
      "stateMutability": "nonpayable",
      "type": "constructor"
    },
    {
      "anonymous": false,
      "inputs": [
        {
          "indexed": true,
          "internalType": "address",
          "name": "to",
          "type": "address"
        },
        {
          "indexed": false,
          "internalType": "uint256",
          "name": "amount",
          "type": "uint256"
        }
      ],
      "name": "PayoutInitiated",
      "type": "event"
    },
    {
      "inputs": [],
      "name": "owner",
      "outputs": [
        {
          "internalType": "address",
          "name": "",
          "type": "address"
        }
      ],
      "stateMutability": "view",
      "type": "function"
    },
    {
      "inputs": [
        {
          "internalType": "address",
          "name": "to",
          "type": "address"
        },
        {
          "internalType": "uint256",
          "name": "amount",
          "type": "uint256"
        }
      ],
      "name": "payout",
      "outputs": [],
      "stateMutability": "nonpayable",
      "type": "function"
    }
  ],
  "bytecode": "0x608060405234801561001057600080fd5b50336000806101000a81548173ffffffffffffffffffffffffffffffffffffffff021916908373ffffffffffffffffffffffffffffffffffffffff1602179055506104e3806100606000396000f3fe608060405234801561001057600080fd5b50600436106100365760003560e01c8063117de2fd1461003b5780638da5cb5b14610057575b600080fd5b610055600480360381019061005091906102c4565b610075565b005b61005f610207565b60405161006c9190610313565b60405180910390f35b60008054906101000a900473ffffffffffffffffffffffffffffffffffffffff1673ffffffffffffffffffffffffffffffffffffffff163373ffffffffffffffffffffffffffffffffffffffff1614610103576040517f08c379a00000000000000000000000000000000000000000000000000000000081526004016100fa9061038b565b60405180910390fd5b600073ffffffffffffffffffffffffffffffffffffffff168273ffffffffffffffffffffffffffffffffffffffff1603610172576040517f08c379a0000000000000000000000000000000000000000000000000000000008152600401610169906103f7565b60405180910390fd5b600081116101b5576040517f08c379a00000000000000000000000000000000000000000000000000000000081526004016101ac90610463565b60405180910390fd5b8173ffffffffffffffffffffffffffffffffffffffff167fea09fe30c6ae9ed25e18c87cfac448206ad965948b8535f12b93099d8cbe1481826040516101fb9190610492565b60405180910390a25050565b60008054906101000a900473ffffffffffffffffffffffffffffffffffffffff1681565b600080fd5b600073ffffffffffffffffffffffffffffffffffffffff82169050919050565b600061025b82610230565b9050919050565b61026b81610250565b811461027657600080fd5b50565b60008135905061028881610262565b92915050565b6000819050919050565b6102a18161028e565b81146102ac57600080fd5b50565b6000813590506102be81610298565b92915050565b600080604083850312156102db576102da61022b565b5b60006102e985828601610279565b92505060206102fa858286016102af565b9150509250929050565b61030d81610250565b82525050565b60006020820190506103286000830184610304565b92915050565b600082825260208201905092915050565b7f4f6e6c79206f776e65722063616e207061796f75740000000000000000000000600082015250565b600061037560158361032e565b91506103808261033f565b602082019050919050565b600060208201905081810360008301526103a481610368565b9050919050565b7f496e76616c696420726563697069656e74206164647265737300000000000000600082015250565b60006103e160198361032e565b91506103ec826103ab565b602082019050919050565b60006020820190508181036000830152610410816103d4565b9050919050565b7f416d6f756e74206d7573742062652067726561746572207468616e207a65726f600082015250565b600061044d60208361032e565b915061045882610417565b602082019050919050565b6000602082019050818103600083015261047c81610440565b9050919050565b61048c8161028e565b82525050565b60006020820190506104a76000830184610483565b9291505056fea264697066735822122027fe7177d0d0b91c867c0d143d84ae34a2c4d6245c76556ed49b698f945440bb64736f6c63430008130033",
  "linkReferences": {},
  "deployedLinkReferences": {}
}